{
  "_format": "hh-sol-artifact-1",
  "contractName": "Domains",
  "sourceName": "contracts/Domains.sol",
  "abi": [
    {
      "inputs": [
        {
          "internalType": "string",
          "name": "_tld",
          "type": "string"
        }
      ],
      "stateMutability": "payable",
      "type": "constructor"
    },
    {
      "inputs": [],
      "name": "AlreadyRegistered",
      "type": "error"
    },
    {
      "inputs": [
        {
          "internalType": "string",
          "name": "name",
          "type": "string"
        }
      ],
      "name": "InvalidName",
      "type": "error"
    },
    {
      "inputs": [],
      "name": "Unauthorized",
      "type": "error"
    },
    {
      "anonymous": false,
      "inputs": [
        {
          "indexed": true,
          "internalType": "address",
          "name": "owner",
          "type": "address"
        },
        {
          "indexed": true,
          "internalType": "address",
          "name": "approved",
          "type": "address"
        },
        {
          "indexed": true,
          "internalType": "uint256",
          "name": "tokenId",
          "type": "uint256"
        }
      ],
      "name": "Approval",
      "type": "event"
    },
    {
      "anonymous": false,
      "inputs": [
        {
          "indexed": true,
          "internalType": "address",
          "name": "owner",
          "type": "address"
        },
        {
          "indexed": true,
          "internalType": "address",
          "name": "operator",
          "type": "address"
        },
        {
          "indexed": false,
          "internalType": "bool",
          "name": "approved",
          "type": "bool"
        }
      ],
      "name": "ApprovalForAll",
      "type": "event"
    },
    {
      "anonymous": false,
      "inputs": [
        {
          "indexed": true,
          "internalType": "address",
          "name": "from",
          "type": "address"
        },
        {
          "indexed": true,
          "internalType": "address",
          "name": "to",
          "type": "address"
        },
        {
          "indexed": true,
          "internalType": "uint256",
          "name": "tokenId",
          "type": "uint256"
        }
      ],
      "name": "Transfer",
      "type": "event"
    },
    {
      "inputs": [
        {
          "internalType": "address",
          "name": "to",
          "type": "address"
        },
        {
          "internalType": "uint256",
          "name": "tokenId",
          "type": "uint256"
        }
      ],
      "name": "approve",
      "outputs": [],
      "stateMutability": "nonpayable",
      "type": "function"
    },
    {
      "inputs": [
        {
          "internalType": "address",
          "name": "owner",
          "type": "address"
        }
      ],
      "name": "balanceOf",
      "outputs": [
        {
          "internalType": "uint256",
          "name": "",
          "type": "uint256"
        }
      ],
      "stateMutability": "view",
      "type": "function"
    },
    {
      "inputs": [
        {
          "internalType": "string",
          "name": "",
          "type": "string"
        }
      ],
      "name": "domains",
      "outputs": [
        {
          "internalType": "address",
          "name": "",
          "type": "address"
        }
      ],
      "stateMutability": "view",
      "type": "function"
    },
    {
      "inputs": [
        {
          "internalType": "string",
          "name": "name",
          "type": "string"
        }
      ],
      "name": "getAddress",
      "outputs": [
        {
          "internalType": "address",
          "name": "",
          "type": "address"
        }
      ],
      "stateMutability": "view",
      "type": "function"
    },
    {
      "inputs": [],
      "name": "getAllNames",
      "outputs": [
        {
          "internalType": "string[]",
          "name": "",
          "type": "string[]"
        }
      ],
      "stateMutability": "view",
      "type": "function"
    },
    {
      "inputs": [
        {
          "internalType": "uint256",
          "name": "tokenId",
          "type": "uint256"
        }
      ],
      "name": "getApproved",
      "outputs": [
        {
          "internalType": "address",
          "name": "",
          "type": "address"
        }
      ],
      "stateMutability": "view",
      "type": "function"
    },
    {
      "inputs": [
        {
          "internalType": "address",
          "name": "owner",
          "type": "address"
        },
        {
          "internalType": "address",
          "name": "operator",
          "type": "address"
        }
      ],
      "name": "isApprovedForAll",
      "outputs": [
        {
          "internalType": "bool",
          "name": "",
          "type": "bool"
        }
      ],
      "stateMutability": "view",
      "type": "function"
    },
    {
      "inputs": [],
      "name": "isOwner",
      "outputs": [
        {
          "internalType": "bool",
          "name": "",
          "type": "bool"
        }
      ],
      "stateMutability": "view",
      "type": "function"
    },
    {
      "inputs": [],
      "name": "name",
      "outputs": [
        {
          "internalType": "string",
          "name": "",
          "type": "string"
        }
      ],
      "stateMutability": "view",
      "type": "function"
    },
    {
      "inputs": [
        {
          "internalType": "uint256",
          "name": "",
          "type": "uint256"
        }
      ],
      "name": "names",
      "outputs": [
        {
          "internalType": "string",
          "name": "",
          "type": "string"
        }
      ],
      "stateMutability": "view",
      "type": "function"
    },
    {
      "inputs": [],
      "name": "owner",
      "outputs": [
        {
          "internalType": "address payable",
          "name": "",
          "type": "address"
        }
      ],
      "stateMutability": "view",
      "type": "function"
    },
    {
      "inputs": [
        {
          "internalType": "uint256",
          "name": "tokenId",
          "type": "uint256"
        }
      ],
      "name": "ownerOf",
      "outputs": [
        {
          "internalType": "address",
          "name": "",
          "type": "address"
        }
      ],
      "stateMutability": "view",
      "type": "function"
    },
    {
      "inputs": [
        {
          "internalType": "string",
          "name": "name",
          "type": "string"
        }
      ],
      "name": "price",
      "outputs": [
        {
          "internalType": "uint256",
          "name": "",
          "type": "uint256"
        }
      ],
      "stateMutability": "pure",
      "type": "function"
    },
    {
      "inputs": [
        {
          "internalType": "string",
          "name": "",
          "type": "string"
        }
      ],
      "name": "records",
      "outputs": [
        {
          "internalType": "string",
          "name": "",
          "type": "string"
        }
      ],
      "stateMutability": "view",
      "type": "function"
    },
    {
      "inputs": [
        {
          "internalType": "string",
          "name": "name",
          "type": "string"
        }
      ],
      "name": "register",
      "outputs": [],
      "stateMutability": "payable",
      "type": "function"
    },
    {
      "inputs": [
        {
          "internalType": "address",
          "name": "from",
          "type": "address"
        },
        {
          "internalType": "address",
          "name": "to",
          "type": "address"
        },
        {
          "internalType": "uint256",
          "name": "tokenId",
          "type": "uint256"
        }
      ],
      "name": "safeTransferFrom",
      "outputs": [],
      "stateMutability": "nonpayable",
      "type": "function"
    },
    {
      "inputs": [
        {
          "internalType": "address",
          "name": "from",
          "type": "address"
        },
        {
          "internalType": "address",
          "name": "to",
          "type": "address"
        },
        {
          "internalType": "uint256",
          "name": "tokenId",
          "type": "uint256"
        },
        {
          "internalType": "bytes",
          "name": "data",
          "type": "bytes"
        }
      ],
      "name": "safeTransferFrom",
      "outputs": [],
      "stateMutability": "nonpayable",
      "type": "function"
    },
    {
      "inputs": [
        {
          "internalType": "address",
          "name": "operator",
          "type": "address"
        },
        {
          "internalType": "bool",
          "name": "approved",
          "type": "bool"
        }
      ],
      "name": "setApprovalForAll",
      "outputs": [],
      "stateMutability": "nonpayable",
      "type": "function"
    },
    {
      "inputs": [
        {
          "internalType": "string",
          "name": "name",
          "type": "string"
        },
        {
          "internalType": "string",
          "name": "record",
          "type": "string"
        }
      ],
      "name": "setRecord",
      "outputs": [],
      "stateMutability": "nonpayable",
      "type": "function"
    },
    {
      "inputs": [
        {
          "internalType": "bytes4",
          "name": "interfaceId",
          "type": "bytes4"
        }
      ],
      "name": "supportsInterface",
      "outputs": [
        {
          "internalType": "bool",
          "name": "",
          "type": "bool"
        }
      ],
      "stateMutability": "view",
      "type": "function"
    },
    {
      "inputs": [],
      "name": "symbol",
      "outputs": [
        {
          "internalType": "string",
          "name": "",
          "type": "string"
        }
      ],
      "stateMutability": "view",
      "type": "function"
    },
    {
      "inputs": [],
      "name": "tld",
      "outputs": [
        {
          "internalType": "string",
          "name": "",
          "type": "string"
        }
      ],
      "stateMutability": "view",
      "type": "function"
    },
    {
      "inputs": [
        {
          "internalType": "uint256",
          "name": "tokenId",
          "type": "uint256"
        }
      ],
      "name": "tokenURI",
      "outputs": [
        {
          "internalType": "string",
          "name": "",
          "type": "string"
        }
      ],
      "stateMutability": "view",
      "type": "function"
    },
    {
      "inputs": [
        {
          "internalType": "address",
          "name": "from",
          "type": "address"
        },
        {
          "internalType": "address",
          "name": "to",
          "type": "address"
        },
        {
          "internalType": "uint256",
          "name": "tokenId",
          "type": "uint256"
        }
      ],
      "name": "transferFrom",
      "outputs": [],
      "stateMutability": "nonpayable",
      "type": "function"
    },
    {
      "inputs": [
        {
          "internalType": "string",
          "name": "name",
          "type": "string"
        }
      ],
      "name": "valid",
      "outputs": [
        {
          "internalType": "bool",
          "name": "",
          "type": "bool"
        }
      ],
      "stateMutability": "pure",
      "type": "function"
    },
    {
      "inputs": [],
      "name": "withdraw",
      "outputs": [],
      "stateMutability": "nonpayable",
      "type": "function"
    }
  ],
  "bytecode": "0x6080604052604051806108a0016040528061086b81526020016200521d61086b913960099081620000319190620004de565b506040518060400160405280600d81526020017f3c2f746578743e3c2f7376673e00000000000000000000000000000000000000815250600a9081620000789190620004de565b5060405162005a8838038062005a8883398181016040528101906200009e919062000729565b6040518060400160405280601181526020017f4f637479204e616d6520536572766963650000000000000000000000000000008152506040518060400160405280600381526020017f4f4e53000000000000000000000000000000000000000000000000000000000081525081600090816200011b9190620004de565b5080600190816200012d9190620004de565b5050508060089081620001419190620004de565b506200018e6040518060400160405280601881526020017f2573206e616d652073657276696365206465706c6f7965640000000000000000815250826200019560201b62001a391760201c565b5062000807565b620002378282604051602401620001ae929190620007cc565b6040516020818303038152906040527f4b5c4277000000000000000000000000000000000000000000000000000000007bffffffffffffffffffffffffffffffffffffffffffffffffffffffff19166020820180517bffffffffffffffffffffffffffffffffffffffffffffffffffffffff83818316178352505050506200023b60201b60201c565b5050565b60008151905060006a636f6e736f6c652e6c6f679050602083016000808483855afa5050505050565b600081519050919050565b7f4e487b7100000000000000000000000000000000000000000000000000000000600052604160045260246000fd5b7f4e487b7100000000000000000000000000000000000000000000000000000000600052602260045260246000fd5b60006002820490506001821680620002e657607f821691505b602082108103620002fc57620002fb6200029e565b5b50919050565b60008190508160005260206000209050919050565b60006020601f8301049050919050565b600082821b905092915050565b600060088302620003667fffffffffffffffffffffffffffffffffffffffffffffffffffffffffffffffff8262000327565b62000372868362000327565b95508019841693508086168417925050509392505050565b6000819050919050565b6000819050919050565b6000620003bf620003b9620003b3846200038a565b62000394565b6200038a565b9050919050565b6000819050919050565b620003db836200039e565b620003f3620003ea82620003c6565b84845462000334565b825550505050565b600090565b6200040a620003fb565b62000417818484620003d0565b505050565b5b818110156200043f576200043360008262000400565b6001810190506200041d565b5050565b601f8211156200048e57620004588162000302565b620004638462000317565b8101602085101562000473578190505b6200048b620004828562000317565b8301826200041c565b50505b505050565b600082821c905092915050565b6000620004b36000198460080262000493565b1980831691505092915050565b6000620004ce8383620004a0565b9150826002028217905092915050565b620004e98262000264565b67ffffffffffffffff8111156200050557620005046200026f565b5b620005118254620002cd565b6200051e82828562000443565b600060209050601f83116001811462000556576000841562000541578287015190505b6200054d8582620004c0565b865550620005bd565b601f198416620005668662000302565b60005b82811015620005905784890151825560018201915060208501945060208101905062000569565b86831015620005b05784890151620005ac601f891682620004a0565b8355505b6001600288020188555050505b505050505050565b6000604051905090565b600080fd5b600080fd5b600080fd5b600080fd5b6000601f19601f8301169050919050565b620005ff82620005e3565b810181811067ffffffffffffffff821117156200062157620006206200026f565b5b80604052505050565b600062000636620005c5565b9050620006448282620005f4565b919050565b600067ffffffffffffffff8211156200066757620006666200026f565b5b6200067282620005e3565b9050602081019050919050565b60005b838110156200069f57808201518184015260208101905062000682565b60008484015250505050565b6000620006c2620006bc8462000649565b6200062a565b905082815260208101848484011115620006e157620006e0620005de565b5b620006ee8482856200067f565b509392505050565b600082601f8301126200070e576200070d620005d9565b5b815162000720848260208601620006ab565b91505092915050565b600060208284031215620007425762000741620005cf565b5b600082015167ffffffffffffffff811115620007635762000762620005d4565b5b6200077184828501620006f6565b91505092915050565b600082825260208201905092915050565b6000620007988262000264565b620007a481856200077a565b9350620007b68185602086016200067f565b620007c181620005e3565b840191505092915050565b60006040820190508181036000830152620007e881856200078b565b90508181036020830152620007fe81846200078b565b90509392505050565b614a0680620008176000396000f3fe6080604052600436106101815760003560e01c80638da5cb5b116100d1578063bf40fac11161008a578063e985e9c511610064578063e985e9c5146105cc578063f2c298be14610609578063fb825e5f14610625578063fe2c61981461065057610181565b8063bf40fac114610529578063c1880a9814610566578063c87b56dd1461058f57610181565b80638da5cb5b146104195780638f32d59b1461044457806395d89b411461046f5780639791c0971461049a578063a22cb465146104d7578063b88d4fde1461050057610181565b80632d5514321161013e5780634622ab03116101185780634622ab0314610325578063541e771d146103625780636352211e1461039f57806370a08231146103dc57610181565b80632d551432146102ba5780633ccfd60b146102e557806342842e0e146102fc57610181565b806301ffc9a71461018657806306fdde03146101c3578063081812fc146101ee578063095ea7b31461022b57806323b872dd14610254578063264492351461027d575b600080fd5b34801561019257600080fd5b506101ad60048036038101906101a89190612d77565b61068d565b6040516101ba9190612dbf565b60405180910390f35b3480156101cf57600080fd5b506101d861076f565b6040516101e59190612e6a565b60405180910390f35b3480156101fa57600080fd5b5061021560048036038101906102109190612ec2565b610801565b6040516102229190612f30565b60405180910390f35b34801561023757600080fd5b50610252600480360381019061024d9190612f77565b610847565b005b34801561026057600080fd5b5061027b60048036038101906102769190612fb7565b61095e565b005b34801561028957600080fd5b506102a4600480360381019061029f919061313f565b6109be565b6040516102b19190612f30565b60405180910390f35b3480156102c657600080fd5b506102cf610a07565b6040516102dc9190612e6a565b60405180910390f35b3480156102f157600080fd5b506102fa610a95565b005b34801561030857600080fd5b50610323600480360381019061031e9190612fb7565b610b5b565b005b34801561033157600080fd5b5061034c60048036038101906103479190612ec2565b610b7b565b6040516103599190612e6a565b60405180910390f35b34801561036e57600080fd5b506103896004803603810190610384919061313f565b610c1b565b6040516103969190612e6a565b60405180910390f35b3480156103ab57600080fd5b506103c660048036038101906103c19190612ec2565b610cd1565b6040516103d39190612f30565b60405180910390f35b3480156103e857600080fd5b5061040360048036038101906103fe9190613188565b610d82565b60405161041091906131c4565b60405180910390f35b34801561042557600080fd5b5061042e610e39565b60405161043b9190613200565b60405180910390f35b34801561045057600080fd5b50610459610e5f565b6040516104669190612dbf565b60405180910390f35b34801561047b57600080fd5b50610484610eb7565b6040516104919190612e6a565b60405180910390f35b3480156104a657600080fd5b506104c160048036038101906104bc919061327b565b610f49565b6040516104ce9190612dbf565b60405180910390f35b3480156104e357600080fd5b506104fe60048036038101906104f991906132f4565b610ffd565b005b34801561050c57600080fd5b50610527600480360381019061052291906133d5565b611013565b005b34801561053557600080fd5b50610550600480360381019061054b919061327b565b611075565b60405161055d9190612f30565b60405180910390f35b34801561057257600080fd5b5061058d60048036038101906105889190613458565b6110c0565b005b34801561059b57600080fd5b506105b660048036038101906105b19190612ec2565b61119b565b6040516105c39190612e6a565b60405180910390f35b3480156105d857600080fd5b506105f360048036038101906105ee91906134d9565b6112ad565b6040516106009190612dbf565b60405180910390f35b610623600480360381019061061e919061327b565b611341565b005b34801561063157600080fd5b5061063a6117b7565b6040516106479190613625565b60405180910390f35b34801561065c57600080fd5b506106776004803603810190610672919061327b565b611995565b60405161068491906131c4565b60405180910390f35b60007f80ac58cd000000000000000000000000000000000000000000000000000000007bffffffffffffffffffffffffffffffffffffffffffffffffffffffff1916827bffffffffffffffffffffffffffffffffffffffffffffffffffffffff1916148061075857507f5b5e139f000000000000000000000000000000000000000000000000000000007bffffffffffffffffffffffffffffffffffffffffffffffffffffffff1916827bffffffffffffffffffffffffffffffffffffffffffffffffffffffff1916145b80610768575061076782611ad5565b5b9050919050565b60606000805461077e90613676565b80601f01602080910402602001604051908101604052809291908181526020018280546107aa90613676565b80156107f75780601f106107cc576101008083540402835291602001916107f7565b820191906000526020600020905b8154815290600101906020018083116107da57829003601f168201915b5050505050905090565b600061080c82611b3f565b6004600083815260200190815260200160002060009054906101000a900473ffffffffffffffffffffffffffffffffffffffff169050919050565b600061085282610cd1565b90508073ffffffffffffffffffffffffffffffffffffffff168373ffffffffffffffffffffffffffffffffffffffff16036108c2576040517f08c379a00000000000000000000000000000000000000000000000000000000081526004016108b990613719565b60405180910390fd5b8073ffffffffffffffffffffffffffffffffffffffff166108e1611b8a565b73ffffffffffffffffffffffffffffffffffffffff161480610910575061090f8161090a611b8a565b6112ad565b5b61094f576040517f08c379a0000000000000000000000000000000000000000000000000000000008152600401610946906137ab565b60405180910390fd5b6109598383611b92565b505050565b61096f610969611b8a565b82611c4b565b6109ae576040517f08c379a00000000000000000000000000000000000000000000000000000000081526004016109a59061383d565b60405180910390fd5b6109b9838383611ce0565b505050565b600b818051602081018201805184825260208301602085012081835280955050505050506000915054906101000a900473ffffffffffffffffffffffffffffffffffffffff1681565b60088054610a1490613676565b80601f0160208091040260200160405190810160405280929190818152602001828054610a4090613676565b8015610a8d5780601f10610a6257610100808354040283529160200191610a8d565b820191906000526020600020905b815481529060010190602001808311610a7057829003601f168201915b505050505081565b610a9d610e5f565b610aa657600080fd5b600047905060003373ffffffffffffffffffffffffffffffffffffffff1682604051610ad19061388e565b60006040518083038185875af1925050503d8060008114610b0e576040519150601f19603f3d011682016040523d82523d6000602084013e610b13565b606091505b5050905080610b57576040517f08c379a0000000000000000000000000000000000000000000000000000000008152600401610b4e906138ef565b60405180910390fd5b5050565b610b7683838360405180602001604052806000815250611013565b505050565b600d6020528060005260406000206000915090508054610b9a90613676565b80601f0160208091040260200160405190810160405280929190818152602001828054610bc690613676565b8015610c135780601f10610be857610100808354040283529160200191610c13565b820191906000526020600020905b815481529060010190602001808311610bf657829003601f168201915b505050505081565b600c818051602081018201805184825260208301602085012081835280955050505050506000915090508054610c5090613676565b80601f0160208091040260200160405190810160405280929190818152602001828054610c7c90613676565b8015610cc95780601f10610c9e57610100808354040283529160200191610cc9565b820191906000526020600020905b815481529060010190602001808311610cac57829003601f168201915b505050505081565b6000806002600084815260200190815260200160002060009054906101000a900473ffffffffffffffffffffffffffffffffffffffff169050600073ffffffffffffffffffffffffffffffffffffffff168173ffffffffffffffffffffffffffffffffffffffff1603610d79576040517f08c379a0000000000000000000000000000000000000000000000000000000008152600401610d709061395b565b60405180910390fd5b80915050919050565b60008073ffffffffffffffffffffffffffffffffffffffff168273ffffffffffffffffffffffffffffffffffffffff1603610df2576040517f08c379a0000000000000000000000000000000000000000000000000000000008152600401610de9906139ed565b60405180910390fd5b600360008373ffffffffffffffffffffffffffffffffffffffff1673ffffffffffffffffffffffffffffffffffffffff168152602001908152602001600020549050919050565b600e60009054906101000a900473ffffffffffffffffffffffffffffffffffffffff1681565b6000600e60009054906101000a900473ffffffffffffffffffffffffffffffffffffffff1673ffffffffffffffffffffffffffffffffffffffff163373ffffffffffffffffffffffffffffffffffffffff1614905090565b606060018054610ec690613676565b80601f0160208091040260200160405190810160405280929190818152602001828054610ef290613676565b8015610f3f5780601f10610f1457610100808354040283529160200191610f3f565b820191906000526020600020905b815481529060010190602001808311610f2257829003601f168201915b5050505050905090565b60006001610f9a84848080601f016020809104026020016040519081016040528093929190818152602001838380828437600081840152601f19601f82011690508083019250505050505050611f46565b10158015610ff557506010610ff284848080601f016020809104026020016040519081016040528093929190818152602001838380828437600081840152601f19601f82011690508083019250505050505050611f46565b11155b905092915050565b61100f611008611b8a565b83836120fb565b5050565b61102461101e611b8a565b83611c4b565b611063576040517f08c379a000000000000000000000000000000000000000000000000000000000815260040161105a9061383d565b60405180910390fd5b61106f84848484612267565b50505050565b6000600b8383604051611089929190613a3d565b908152602001604051809103902060009054906101000a900473ffffffffffffffffffffffffffffffffffffffff16905092915050565b600b84846040516110d2929190613a3d565b908152602001604051809103902060009054906101000a900473ffffffffffffffffffffffffffffffffffffffff1673ffffffffffffffffffffffffffffffffffffffff163373ffffffffffffffffffffffffffffffffffffffff1614611165576040517f82b4290000000000000000000000000000000000000000000000000000000000815260040160405180910390fd5b8181600c8686604051611179929190613a3d565b90815260200160405180910390209182611194929190613c0d565b5050505050565b60606111a682611b3f565b60006006600084815260200190815260200160002080546111c690613676565b80601f01602080910402602001604051908101604052809291908181526020018280546111f290613676565b801561123f5780601f106112145761010080835404028352916020019161123f565b820191906000526020600020905b81548152906001019060200180831161122257829003601f168201915b5050505050905060006112506122c3565b905060008151036112655781925050506112a8565b60008251111561129a578082604051602001611282929190613d0e565b604051602081830303815290604052925050506112a8565b6112a3846122da565b925050505b919050565b6000600560008473ffffffffffffffffffffffffffffffffffffffff1673ffffffffffffffffffffffffffffffffffffffff16815260200190815260200160002060008373ffffffffffffffffffffffffffffffffffffffff1673ffffffffffffffffffffffffffffffffffffffff16815260200190815260200160002060009054906101000a900460ff16905092915050565b600073ffffffffffffffffffffffffffffffffffffffff16600b838360405161136b929190613a3d565b908152602001604051809103902060009054906101000a900473ffffffffffffffffffffffffffffffffffffffff1673ffffffffffffffffffffffffffffffffffffffff16146113ba57600080fd5b60006113c68383611995565b90508034101561140b576040517f08c379a000000000000000000000000000000000000000000000000000000000815260040161140290613d7e565b60405180910390fd5b60008383600860405160200161142393929190613e6d565b60405160208183030381529060405290506000600982600a60405160200161144d93929190613e9e565b6040516020818303038152906040529050600061146a6007612342565b905060006114bb87878080601f016020809104026020016040519081016040528093929190818152602001838380828437600081840152601f19601f82011690508083019250505050505050611f46565b905060006114c882612350565b90506115bc6040518060600160405280603181526020016149606031913989898080601f016020809104026020016040519081016040528093929190818152602001838380828437600081840152601f19601f820116905080830192505050505050506008805461153890613676565b80601f016020809104026020016040519081016040528092919081815260200182805461156490613676565b80156115b15780601f10611586576101008083540402835291602001916115b1565b820191906000526020600020905b81548152906001019060200180831161159457829003601f168201915b5050505050866124b0565b600073ffffffffffffffffffffffffffffffffffffffff16600b89896040516115e6929190613a3d565b908152602001604051809103902060009054906101000a900473ffffffffffffffffffffffffffffffffffffffff1673ffffffffffffffffffffffffffffffffffffffff1614611662576040517f3a81d6fc00000000000000000000000000000000000000000000000000000000815260040160405180910390fd5b61166c8888610f49565b6116af5787876040517f7f19f48d0000000000000000000000000000000000000000000000000000000081526004016116a6929190613efc565b60405180910390fd5b60006116e5866116be87612552565b846040516020016116d19392919061409c565b604051602081830303815290604052612552565b90506000816040516020016116fa9190614145565b604051602081830303815290604052905061171533866126b5565b61171f85826126d3565b33600b8b8b604051611732929190613a3d565b908152602001604051809103902060006101000a81548173ffffffffffffffffffffffffffffffffffffffff021916908373ffffffffffffffffffffffffffffffffffffffff1602179055508989600d600088815260200190815260200160002091826117a0929190613c0d565b506117ab6007612740565b50505050505050505050565b60606117f76040518060400160405280601f81526020017f47657474696e6720616c6c206e616d65732066726f6d20636f6e747261637400815250612756565b60006118036007612342565b67ffffffffffffffff81111561181c5761181b613014565b5b60405190808252806020026020018201604052801561184f57816020015b606081526020019060019003908161183a5790505b50905060005b61185f6007612342565b81101561198d57600d6000828152602001908152602001600020805461188490613676565b80601f01602080910402602001604051908101604052809291908181526020018280546118b090613676565b80156118fd5780601f106118d2576101008083540402835291602001916118fd565b820191906000526020600020905b8154815290600101906020018083116118e057829003601f168201915b505050505082828151811061191557611914614167565b5b602002602001018190525061197a6040518060400160405280601781526020017f4e616d6520666f7220746f6b656e2025642069732025730000000000000000008152508284848151811061196d5761196c614167565b5b60200260200101516127ef565b8080611985906141c5565b915050611855565b508091505090565b6000806119e584848080601f016020809104026020016040519081016040528093929190818152602001838380828437600081840152601f19601f82011690508083019250505050505050611f46565b9050600081116119f457600080fd5b60038103611a0d576706f05b59d3b20000915050611a33565b60048103611a2657670429d069189e0000915050611a33565b67016345785d8a00009150505b92915050565b611ad18282604051602401611a4f92919061420d565b6040516020818303038152906040527f4b5c4277000000000000000000000000000000000000000000000000000000007bffffffffffffffffffffffffffffffffffffffffffffffffffffffff19166020820180517bffffffffffffffffffffffffffffffffffffffffffffffffffffffff838183161783525050505061288e565b5050565b60007f01ffc9a7000000000000000000000000000000000000000000000000000000007bffffffffffffffffffffffffffffffffffffffffffffffffffffffff1916827bffffffffffffffffffffffffffffffffffffffffffffffffffffffff1916149050919050565b611b48816128b7565b611b87576040517f08c379a0000000000000000000000000000000000000000000000000000000008152600401611b7e9061395b565b60405180910390fd5b50565b600033905090565b816004600083815260200190815260200160002060006101000a81548173ffffffffffffffffffffffffffffffffffffffff021916908373ffffffffffffffffffffffffffffffffffffffff160217905550808273ffffffffffffffffffffffffffffffffffffffff16611c0583610cd1565b73ffffffffffffffffffffffffffffffffffffffff167f8c5be1e5ebec7d5bd14f71427d1e84f3dd0314c0f7b2291e5b200ac8c7c3b92560405160405180910390a45050565b600080611c5783610cd1565b90508073ffffffffffffffffffffffffffffffffffffffff168473ffffffffffffffffffffffffffffffffffffffff161480611c995750611c9881856112ad565b5b80611cd757508373ffffffffffffffffffffffffffffffffffffffff16611cbf84610801565b73ffffffffffffffffffffffffffffffffffffffff16145b91505092915050565b8273ffffffffffffffffffffffffffffffffffffffff16611d0082610cd1565b73ffffffffffffffffffffffffffffffffffffffff1614611d56576040517f08c379a0000000000000000000000000000000000000000000000000000000008152600401611d4d906142b6565b60405180910390fd5b600073ffffffffffffffffffffffffffffffffffffffff168273ffffffffffffffffffffffffffffffffffffffff1603611dc5576040517f08c379a0000000000000000000000000000000000000000000000000000000008152600401611dbc90614348565b60405180910390fd5b611dd0838383612923565b611ddb600082611b92565b6001600360008573ffffffffffffffffffffffffffffffffffffffff1673ffffffffffffffffffffffffffffffffffffffff1681526020019081526020016000206000828254611e2b9190614368565b925050819055506001600360008473ffffffffffffffffffffffffffffffffffffffff1673ffffffffffffffffffffffffffffffffffffffff1681526020019081526020016000206000828254611e82919061439c565b92505081905550816002600083815260200190815260200160002060006101000a81548173ffffffffffffffffffffffffffffffffffffffff021916908373ffffffffffffffffffffffffffffffffffffffff160217905550808273ffffffffffffffffffffffffffffffffffffffff168473ffffffffffffffffffffffffffffffffffffffff167fddf252ad1be2c89b69c2b068fc378daa952ba7f163c4a11628f55a4df523b3ef60405160405180910390a4611f41838383612928565b505050565b60008060008084519050600092505b808210156120f0576000858381518110611f7257611f71614167565b5b602001015160f81c60f81b9050608060f81b817effffffffffffffffffffffffffffffffffffffffffffffffffffffffffffff19161015611fc157600183611fba919061439c565b92506120dc565b60e060f81b817effffffffffffffffffffffffffffffffffffffffffffffffffffffffffffff1916101561200357600283611ffc919061439c565b92506120db565b60f060f81b817effffffffffffffffffffffffffffffffffffffffffffffffffffffffffffff191610156120455760038361203e919061439c565b92506120da565b60f8801b817effffffffffffffffffffffffffffffffffffffffffffffffffffffffffffff191610156120865760048361207f919061439c565b92506120d9565b60fc60f81b817effffffffffffffffffffffffffffffffffffffffffffffffffffffffffffff191610156120c8576005836120c1919061439c565b92506120d8565b6006836120d5919061439c565b92505b5b5b5b5b5082806120e8906141c5565b935050611f55565b829350505050919050565b8173ffffffffffffffffffffffffffffffffffffffff168373ffffffffffffffffffffffffffffffffffffffff1603612169576040517f08c379a00000000000000000000000000000000000000000000000000000000081526004016121609061441c565b60405180910390fd5b80600560008573ffffffffffffffffffffffffffffffffffffffff1673ffffffffffffffffffffffffffffffffffffffff16815260200190815260200160002060008473ffffffffffffffffffffffffffffffffffffffff1673ffffffffffffffffffffffffffffffffffffffff16815260200190815260200160002060006101000a81548160ff0219169083151502179055508173ffffffffffffffffffffffffffffffffffffffff168373ffffffffffffffffffffffffffffffffffffffff167f17307eab39ab6107e8899845ad3d59bd9653f200f220920489ca2b5937696c318360405161225a9190612dbf565b60405180910390a3505050565b612272848484611ce0565b61227e8484848461292d565b6122bd576040517f08c379a00000000000000000000000000000000000000000000000000000000081526004016122b4906144ae565b60405180910390fd5b50505050565b606060405180602001604052806000815250905090565b60606122e582611b3f565b60006122ef6122c3565b9050600081511161230f576040518060200160405280600081525061233a565b8061231984612350565b60405160200161232a929190613d0e565b6040516020818303038152906040525b915050919050565b600081600001549050919050565b606060008203612397576040518060400160405280600181526020017f300000000000000000000000000000000000000000000000000000000000000081525090506124ab565b600082905060005b600082146123c95780806123b2906141c5565b915050600a826123c291906144fd565b915061239f565b60008167ffffffffffffffff8111156123e5576123e4613014565b5b6040519080825280601f01601f1916602001820160405280156124175781602001600182028036833780820191505090505b5090505b600085146124a4576001826124309190614368565b9150600a8561243f919061452e565b603061244b919061439c565b60f81b81838151811061246157612460614167565b5b60200101907effffffffffffffffffffffffffffffffffffffffffffffffffffffffffffff1916908160001a905350600a8561249d91906144fd565b945061241b565b8093505050505b919050565b61254c848484846040516024016124ca949392919061455f565b6040516020818303038152906040527f8eafb02b000000000000000000000000000000000000000000000000000000007bffffffffffffffffffffffffffffffffffffffffffffffffffffffff19166020820180517bffffffffffffffffffffffffffffffffffffffffffffffffffffffff838183161783525050505061288e565b50505050565b60606000825103612574576040518060200160405280600081525090506126b0565b600060405180606001604052806040815260200161499160409139905060006003600285516125a3919061439c565b6125ad91906144fd565b60046125b991906145b9565b67ffffffffffffffff8111156125d2576125d1613014565b5b6040519080825280601f01601f1916602001820160405280156126045781602001600182028036833780820191505090505b509050600182016020820185865187015b80821015612670576003820191508151603f8160121c168501518453600184019350603f81600c1c168501518453600184019350603f8160061c168501518453600184019350603f8116850151845360018401935050612615565b505060038651066001811461268c576002811461269f576126a7565b603d6001830353603d60028303536126a7565b603d60018303535b50505080925050505b919050565b6126cf828260405180602001604052806000815250612ab4565b5050565b6126dc826128b7565b61271b576040517f08c379a00000000000000000000000000000000000000000000000000000000081526004016127129061466d565b60405180910390fd5b8060066000848152602001908152602001600020908161273b919061468d565b505050565b6001816000016000828254019250508190555050565b6127ec8160405160240161276a9190612e6a565b6040516020818303038152906040527f41304fac000000000000000000000000000000000000000000000000000000007bffffffffffffffffffffffffffffffffffffffffffffffffffffffff19166020820180517bffffffffffffffffffffffffffffffffffffffffffffffffffffffff838183161783525050505061288e565b50565b6128898383836040516024016128079392919061475f565b6040516020818303038152906040527f5970e089000000000000000000000000000000000000000000000000000000007bffffffffffffffffffffffffffffffffffffffffffffffffffffffff19166020820180517bffffffffffffffffffffffffffffffffffffffffffffffffffffffff838183161783525050505061288e565b505050565b60008151905060006a636f6e736f6c652e6c6f679050602083016000808483855afa5050505050565b60008073ffffffffffffffffffffffffffffffffffffffff166002600084815260200190815260200160002060009054906101000a900473ffffffffffffffffffffffffffffffffffffffff1673ffffffffffffffffffffffffffffffffffffffff1614159050919050565b505050565b505050565b600061294e8473ffffffffffffffffffffffffffffffffffffffff16612b0f565b15612aa7578373ffffffffffffffffffffffffffffffffffffffff1663150b7a02612977611b8a565b8786866040518563ffffffff1660e01b815260040161299994939291906147f9565b6020604051808303816000875af19250505080156129d557506040513d601f19601f820116820180604052508101906129d2919061485a565b60015b612a57573d8060008114612a05576040519150601f19603f3d011682016040523d82523d6000602084013e612a0a565b606091505b506000815103612a4f576040517f08c379a0000000000000000000000000000000000000000000000000000000008152600401612a46906144ae565b60405180910390fd5b805181602001fd5b63150b7a0260e01b7bffffffffffffffffffffffffffffffffffffffffffffffffffffffff1916817bffffffffffffffffffffffffffffffffffffffffffffffffffffffff191614915050612aac565b600190505b949350505050565b612abe8383612b32565b612acb600084848461292d565b612b0a576040517f08c379a0000000000000000000000000000000000000000000000000000000008152600401612b01906144ae565b60405180910390fd5b505050565b6000808273ffffffffffffffffffffffffffffffffffffffff163b119050919050565b600073ffffffffffffffffffffffffffffffffffffffff168273ffffffffffffffffffffffffffffffffffffffff1603612ba1576040517f08c379a0000000000000000000000000000000000000000000000000000000008152600401612b98906148d3565b60405180910390fd5b612baa816128b7565b15612bea576040517f08c379a0000000000000000000000000000000000000000000000000000000008152600401612be19061493f565b60405180910390fd5b612bf660008383612923565b6001600360008473ffffffffffffffffffffffffffffffffffffffff1673ffffffffffffffffffffffffffffffffffffffff1681526020019081526020016000206000828254612c46919061439c565b92505081905550816002600083815260200190815260200160002060006101000a81548173ffffffffffffffffffffffffffffffffffffffff021916908373ffffffffffffffffffffffffffffffffffffffff160217905550808273ffffffffffffffffffffffffffffffffffffffff16600073ffffffffffffffffffffffffffffffffffffffff167fddf252ad1be2c89b69c2b068fc378daa952ba7f163c4a11628f55a4df523b3ef60405160405180910390a4612d0760008383612928565b5050565b6000604051905090565b600080fd5b600080fd5b60007fffffffff0000000000000000000000000000000000000000000000000000000082169050919050565b612d5481612d1f565b8114612d5f57600080fd5b50565b600081359050612d7181612d4b565b92915050565b600060208284031215612d8d57612d8c612d15565b5b6000612d9b84828501612d62565b91505092915050565b60008115159050919050565b612db981612da4565b82525050565b6000602082019050612dd46000830184612db0565b92915050565b600081519050919050565b600082825260208201905092915050565b60005b83811015612e14578082015181840152602081019050612df9565b60008484015250505050565b6000601f19601f8301169050919050565b6000612e3c82612dda565b612e468185612de5565b9350612e56818560208601612df6565b612e5f81612e20565b840191505092915050565b60006020820190508181036000830152612e848184612e31565b905092915050565b6000819050919050565b612e9f81612e8c565b8114612eaa57600080fd5b50565b600081359050612ebc81612e96565b92915050565b600060208284031215612ed857612ed7612d15565b5b6000612ee684828501612ead565b91505092915050565b600073ffffffffffffffffffffffffffffffffffffffff82169050919050565b6000612f1a82612eef565b9050919050565b612f2a81612f0f565b82525050565b6000602082019050612f456000830184612f21565b92915050565b612f5481612f0f565b8114612f5f57600080fd5b50565b600081359050612f7181612f4b565b92915050565b60008060408385031215612f8e57612f8d612d15565b5b6000612f9c85828601612f62565b9250506020612fad85828601612ead565b9150509250929050565b600080600060608486031215612fd057612fcf612d15565b5b6000612fde86828701612f62565b9350506020612fef86828701612f62565b925050604061300086828701612ead565b9150509250925092565b600080fd5b600080fd5b7f4e487b7100000000000000000000000000000000000000000000000000000000600052604160045260246000fd5b61304c82612e20565b810181811067ffffffffffffffff8211171561306b5761306a613014565b5b80604052505050565b600061307e612d0b565b905061308a8282613043565b919050565b600067ffffffffffffffff8211156130aa576130a9613014565b5b6130b382612e20565b9050602081019050919050565b82818337600083830152505050565b60006130e26130dd8461308f565b613074565b9050828152602081018484840111156130fe576130fd61300f565b5b6131098482856130c0565b509392505050565b600082601f8301126131265761312561300a565b5b81356131368482602086016130cf565b91505092915050565b60006020828403121561315557613154612d15565b5b600082013567ffffffffffffffff81111561317357613172612d1a565b5b61317f84828501613111565b91505092915050565b60006020828403121561319e5761319d612d15565b5b60006131ac84828501612f62565b91505092915050565b6131be81612e8c565b82525050565b60006020820190506131d960008301846131b5565b92915050565b60006131ea82612eef565b9050919050565b6131fa816131df565b82525050565b600060208201905061321560008301846131f1565b92915050565b600080fd5b600080fd5b60008083601f84011261323b5761323a61300a565b5b8235905067ffffffffffffffff8111156132585761325761321b565b5b60208301915083600182028301111561327457613273613220565b5b9250929050565b6000806020838503121561329257613291612d15565b5b600083013567ffffffffffffffff8111156132b0576132af612d1a565b5b6132bc85828601613225565b92509250509250929050565b6132d181612da4565b81146132dc57600080fd5b50565b6000813590506132ee816132c8565b92915050565b6000806040838503121561330b5761330a612d15565b5b600061331985828601612f62565b925050602061332a858286016132df565b9150509250929050565b600067ffffffffffffffff82111561334f5761334e613014565b5b61335882612e20565b9050602081019050919050565b600061337861337384613334565b613074565b9050828152602081018484840111156133945761339361300f565b5b61339f8482856130c0565b509392505050565b600082601f8301126133bc576133bb61300a565b5b81356133cc848260208601613365565b91505092915050565b600080600080608085870312156133ef576133ee612d15565b5b60006133fd87828801612f62565b945050602061340e87828801612f62565b935050604061341f87828801612ead565b925050606085013567ffffffffffffffff8111156134405761343f612d1a565b5b61344c878288016133a7565b91505092959194509250565b6000806000806040858703121561347257613471612d15565b5b600085013567ffffffffffffffff8111156134905761348f612d1a565b5b61349c87828801613225565b9450945050602085013567ffffffffffffffff8111156134bf576134be612d1a565b5b6134cb87828801613225565b925092505092959194509250565b600080604083850312156134f0576134ef612d15565b5b60006134fe85828601612f62565b925050602061350f85828601612f62565b9150509250929050565b600081519050919050565b600082825260208201905092915050565b6000819050602082019050919050565b600082825260208201905092915050565b600061356182612dda565b61356b8185613545565b935061357b818560208601612df6565b61358481612e20565b840191505092915050565b600061359b8383613556565b905092915050565b6000602082019050919050565b60006135bb82613519565b6135c58185613524565b9350836020820285016135d785613535565b8060005b8581101561361357848403895281516135f4858261358f565b94506135ff836135a3565b925060208a019950506001810190506135db565b50829750879550505050505092915050565b6000602082019050818103600083015261363f81846135b0565b905092915050565b7f4e487b7100000000000000000000000000000000000000000000000000000000600052602260045260246000fd5b6000600282049050600182168061368e57607f821691505b6020821081036136a1576136a0613647565b5b50919050565b7f4552433732313a20617070726f76616c20746f2063757272656e74206f776e6560008201527f7200000000000000000000000000000000000000000000000000000000000000602082015250565b6000613703602183612de5565b915061370e826136a7565b604082019050919050565b60006020820190508181036000830152613732816136f6565b9050919050565b7f4552433732313a20617070726f76652063616c6c6572206973206e6f7420746f60008201527f6b656e206f776e6572206e6f7220617070726f76656420666f7220616c6c0000602082015250565b6000613795603e83612de5565b91506137a082613739565b604082019050919050565b600060208201905081810360008301526137c481613788565b9050919050565b7f4552433732313a2063616c6c6572206973206e6f7420746f6b656e206f776e6560008201527f72206e6f7220617070726f766564000000000000000000000000000000000000602082015250565b6000613827602e83612de5565b9150613832826137cb565b604082019050919050565b600060208201905081810360008301526138568161381a565b9050919050565b600081905092915050565b50565b600061387860008361385d565b915061388382613868565b600082019050919050565b60006138998261386b565b9150819050919050565b7f4661696c656420746f207769746864726177204d617469630000000000000000600082015250565b60006138d9601883612de5565b91506138e4826138a3565b602082019050919050565b60006020820190508181036000830152613908816138cc565b9050919050565b7f4552433732313a20696e76616c696420746f6b656e2049440000000000000000600082015250565b6000613945601883612de5565b91506139508261390f565b602082019050919050565b6000602082019050818103600083015261397481613938565b9050919050565b7f4552433732313a2061646472657373207a65726f206973206e6f74206120766160008201527f6c6964206f776e65720000000000000000000000000000000000000000000000602082015250565b60006139d7602983612de5565b91506139e28261397b565b604082019050919050565b60006020820190508181036000830152613a06816139ca565b9050919050565b600081905092915050565b6000613a248385613a0d565b9350613a318385846130c0565b82840190509392505050565b6000613a4a828486613a18565b91508190509392505050565b600082905092915050565b60008190508160005260206000209050919050565b60006020601f8301049050919050565b600082821b905092915050565b600060088302613ac37fffffffffffffffffffffffffffffffffffffffffffffffffffffffffffffffff82613a86565b613acd8683613a86565b95508019841693508086168417925050509392505050565b6000819050919050565b6000613b0a613b05613b0084612e8c565b613ae5565b612e8c565b9050919050565b6000819050919050565b613b2483613aef565b613b38613b3082613b11565b848454613a93565b825550505050565b600090565b613b4d613b40565b613b58818484613b1b565b505050565b5b81811015613b7c57613b71600082613b45565b600181019050613b5e565b5050565b601f821115613bc157613b9281613a61565b613b9b84613a76565b81016020851015613baa578190505b613bbe613bb685613a76565b830182613b5d565b50505b505050565b600082821c905092915050565b6000613be460001984600802613bc6565b1980831691505092915050565b6000613bfd8383613bd3565b9150826002028217905092915050565b613c178383613a56565b67ffffffffffffffff811115613c3057613c2f613014565b5b613c3a8254613676565b613c45828285613b80565b6000601f831160018114613c745760008415613c62578287013590505b613c6c8582613bf1565b865550613cd4565b601f198416613c8286613a61565b60005b82811015613caa57848901358255600182019150602085019450602081019050613c85565b86831015613cc75784890135613cc3601f891682613bd3565b8355505b6001600288020188555050505b50505050505050565b6000613ce882612dda565b613cf28185613a0d565b9350613d02818560208601612df6565b80840191505092915050565b6000613d1a8285613cdd565b9150613d268284613cdd565b91508190509392505050565b7f4e6f7420656e6f756768204d6174696320706169640000000000000000000000600082015250565b6000613d68601583612de5565b9150613d7382613d32565b602082019050919050565b60006020820190508181036000830152613d9781613d5b565b9050919050565b7f2e00000000000000000000000000000000000000000000000000000000000000600082015250565b6000613dd4600183613a0d565b9150613ddf82613d9e565b600182019050919050565b60008154613df781613676565b613e018186613a0d565b94506001821660008114613e1c5760018114613e3157613e64565b60ff1983168652811515820286019350613e64565b613e3a85613a61565b60005b83811015613e5c57815481890152600182019150602081019050613e3d565b838801955050505b50505092915050565b6000613e7a828587613a18565b9150613e8582613dc7565b9150613e918284613dea565b9150819050949350505050565b6000613eaa8286613dea565b9150613eb68285613cdd565b9150613ec28284613dea565b9150819050949350505050565b6000613edb8385612de5565b9350613ee88385846130c0565b613ef183612e20565b840190509392505050565b60006020820190508181036000830152613f17818486613ecf565b90509392505050565b7f7b226e616d65223a202200000000000000000000000000000000000000000000600082015250565b6000613f56600a83613a0d565b9150613f6182613f20565b600a82019050919050565b7f222c20226465736372697074696f6e223a20224120646f6d61696e206f6e207460008201527f6865204e696e6a61206e616d652073657276696365222c2022696d616765223a60208201527f2022646174613a696d6167652f7376672b786d6c3b6261736536342c00000000604082015250565b6000613fee605c83613a0d565b9150613ff982613f6c565b605c82019050919050565b7f222c226c656e677468223a220000000000000000000000000000000000000000600082015250565b600061403a600c83613a0d565b915061404582614004565b600c82019050919050565b7f227d000000000000000000000000000000000000000000000000000000000000600082015250565b6000614086600283613a0d565b915061409182614050565b600282019050919050565b60006140a782613f49565b91506140b38286613cdd565b91506140be82613fe1565b91506140ca8285613cdd565b91506140d58261402d565b91506140e18284613cdd565b91506140ec82614079565b9150819050949350505050565b7f646174613a696d6167652f7376672b786d6c3b6261736536342c000000000000600082015250565b600061412f601a83613a0d565b915061413a826140f9565b601a82019050919050565b600061415082614122565b915061415c8284613cdd565b915081905092915050565b7f4e487b7100000000000000000000000000000000000000000000000000000000600052603260045260246000fd5b7f4e487b7100000000000000000000000000000000000000000000000000000000600052601160045260246000fd5b60006141d082612e8c565b91507fffffffffffffffffffffffffffffffffffffffffffffffffffffffffffffffff820361420257614201614196565b5b600182019050919050565b600060408201905081810360008301526142278185612e31565b9050818103602083015261423b8184612e31565b90509392505050565b7f4552433732313a207472616e736665722066726f6d20696e636f72726563742060008201527f6f776e6572000000000000000000000000000000000000000000000000000000602082015250565b60006142a0602583612de5565b91506142ab82614244565b604082019050919050565b600060208201905081810360008301526142cf81614293565b9050919050565b7f4552433732313a207472616e7366657220746f20746865207a65726f2061646460008201527f7265737300000000000000000000000000000000000000000000000000000000602082015250565b6000614332602483612de5565b915061433d826142d6565b604082019050919050565b6000602082019050818103600083015261436181614325565b9050919050565b600061437382612e8c565b915061437e83612e8c565b925082820390508181111561439657614395614196565b5b92915050565b60006143a782612e8c565b91506143b283612e8c565b92508282019050808211156143ca576143c9614196565b5b92915050565b7f4552433732313a20617070726f766520746f2063616c6c657200000000000000600082015250565b6000614406601983612de5565b9150614411826143d0565b602082019050919050565b60006020820190508181036000830152614435816143f9565b9050919050565b7f4552433732313a207472616e7366657220746f206e6f6e20455243373231526560008201527f63656976657220696d706c656d656e7465720000000000000000000000000000602082015250565b6000614498603283612de5565b91506144a38261443c565b604082019050919050565b600060208201905081810360008301526144c78161448b565b9050919050565b7f4e487b7100000000000000000000000000000000000000000000000000000000600052601260045260246000fd5b600061450882612e8c565b915061451383612e8c565b925082614523576145226144ce565b5b828204905092915050565b600061453982612e8c565b915061454483612e8c565b925082614554576145536144ce565b5b828206905092915050565b600060808201905081810360008301526145798187612e31565b9050818103602083015261458d8186612e31565b905081810360408301526145a18185612e31565b90506145b060608301846131b5565b95945050505050565b60006145c482612e8c565b91506145cf83612e8c565b92508282026145dd81612e8c565b915082820484148315176145f4576145f3614196565b5b5092915050565b7f45524337323155524953746f726167653a2055524920736574206f66206e6f6e60008201527f6578697374656e7420746f6b656e000000000000000000000000000000000000602082015250565b6000614657602e83612de5565b9150614662826145fb565b604082019050919050565b600060208201905081810360008301526146868161464a565b9050919050565b61469682612dda565b67ffffffffffffffff8111156146af576146ae613014565b5b6146b98254613676565b6146c4828285613b80565b600060209050601f8311600181146146f757600084156146e5578287015190505b6146ef8582613bf1565b865550614757565b601f19841661470586613a61565b60005b8281101561472d57848901518255600182019150602085019450602081019050614708565b8683101561474a5784890151614746601f891682613bd3565b8355505b6001600288020188555050505b505050505050565b600060608201905081810360008301526147798186612e31565b905061478860208301856131b5565b818103604083015261479a8184612e31565b9050949350505050565b600081519050919050565b600082825260208201905092915050565b60006147cb826147a4565b6147d581856147af565b93506147e5818560208601612df6565b6147ee81612e20565b840191505092915050565b600060808201905061480e6000830187612f21565b61481b6020830186612f21565b61482860408301856131b5565b818103606083015261483a81846147c0565b905095945050505050565b60008151905061485481612d4b565b92915050565b6000602082840312156148705761486f612d15565b5b600061487e84828501614845565b91505092915050565b7f4552433732313a206d696e7420746f20746865207a65726f2061646472657373600082015250565b60006148bd602083612de5565b91506148c882614887565b602082019050919050565b600060208201905081810360008301526148ec816148b0565b9050919050565b7f4552433732313a20746f6b656e20616c7265616479206d696e74656400000000600082015250565b6000614929601c83612de5565b9150614934826148f3565b602082019050919050565b600060208201905081810360008301526149588161491c565b905091905056fe5265676973746572696e672025732e2573206f6e2074686520636f6e7472616374207769746820746f6b656e49442025644142434445464748494a4b4c4d4e4f505152535455565758595a6162636465666768696a6b6c6d6e6f707172737475767778797a303132333435363738392b2fa26469706673582212207660517d578a5d2c9cf9ce735560e798e2b51f51025556cae4b6c7fbf84b0c4464736f6c634300081100333c73766720786d6c6e733d22687474703a2f2f7777772e77332e6f72672f323030302f737667222077696474683d2232373022206865696768743d22323730222066696c6c3d226e6f6e65223e3c706174682066696c6c3d2275726c282342292220643d224d302030683237307632373048307a222f3e3c646566733e3c66696c7465722069643d22412220636f6c6f722d696e746572706f6c6174696f6e2d66696c746572733d2273524742222066696c746572556e6974733d227573657253706163654f6e55736522206865696768743d22323730222077696474683d22323730223e3c666544726f70536861646f772064783d2230222064793d22312220737464446576696174696f6e3d22322220666c6f6f642d6f7061636974793d222e323235222077696474683d223230302522206865696768743d2232303025222f3e3c2f66696c7465723e3c2f646566733e3c7061746820643d224d37322e3836332034322e393439632d2e3636382d2e3338372d312e3432362d2e35392d322e3139372d2e3539732d312e3532392e3230342d322e3139372e35396c2d31302e30383120362e3033322d362e383520332e3933342d31302e30383120362e303332632d2e3636382e3338372d312e3432362e35392d322e3139372e3539732d312e3532392d2e3230342d322e3139372d2e35396c2d382e3031332d342e37323161342e353220342e35322030203020312d312e3538392d312e363136632d2e3338342d2e3636352d2e3539342d312e3431382d2e3630382d322e313837762d392e3331632d2e3031332d2e3737352e3138352d312e3533382e3537322d322e32303861342e323520342e323520302030203120312e3632352d312e3539356c372e3838342d342e3539632e3636382d2e33383720312e3432362d2e353920322e3139372d2e353973312e3532392e32303420322e3139372e35396c372e38383420342e353961342e353220342e353220302030203120312e35383920312e363136632e3338342e3636352e35393420312e3431382e36303820322e31383776362e3033326c362e38352d342e303635762d362e303332632e3031332d2e3737352d2e3138352d312e3533382d2e3537322d322e32303861342e323520342e32352030203020302d312e3632352d312e3539354c34312e3435362032342e3539632d2e3636382d2e3338372d312e3432362d2e35392d322e3139372d2e3539732d312e3532392e3230342d322e3139372e35396c2d31342e38363420382e36353561342e323520342e32352030203020302d312e36323520312e353935632d2e3338372e36372d2e35383520312e3433342d2e35373220322e3230387631372e343431632d2e3031332e3737352e31383520312e3533382e35373220322e32303861342e323520342e323520302030203020312e36323520312e3539356c31342e38363420382e363535632e3636382e33383720312e3432362e353920322e3139372e353973312e3532392d2e32303420322e3139372d2e35396c31302e3038312d352e39303120362e38352d342e3036352031302e3038312d352e393031632e3636382d2e33383720312e3432362d2e353920322e3139372d2e353973312e3532392e32303420322e3139372e35396c372e38383420342e353961342e353220342e353220302030203120312e35383920312e363136632e3338342e3636352e35393420312e3431382e36303820322e31383776392e333131632e3031332e3737352d2e31383520312e3533382d2e35373220322e32303861342e323520342e32352030203020312d312e36323520312e3539356c2d372e38383420342e373231632d2e3636382e3338372d312e3432362e35392d322e3139372e3539732d312e3532392d2e3230342d322e3139372d2e35396c2d372e3838342d342e353961342e353220342e35322030203020312d312e3538392d312e363136632d2e3338352d2e3636352d2e3539342d312e3431382d2e3630382d322e313837762d362e3033326c2d362e383520342e30363576362e303332632d2e3031332e3737352e31383520312e3533382e35373220322e32303861342e323520342e323520302030203020312e36323520312e3539356c31342e38363420382e363535632e3636382e33383720312e3432362e353920322e3139372e353973312e3532392d2e32303420322e3139372d2e35396c31342e3836342d382e363535632e3635372d2e33393420312e3230342d2e393520312e3538392d312e363136732e3539342d312e3431382e3630392d322e3138375635352e353338632e3031332d2e3737352d2e3138352d312e3533382d2e3537322d322e32303861342e323520342e32352030203020302d312e3632352d312e3539356c2d31342e3939332d382e3738367a222066696c6c3d2223666666222f3e3c646566733e3c6c696e6561724772616469656e742069643d2242222078313d2230222079313d2230222078323d22323730222079323d2232373022206772616469656e74556e6974733d227573657253706163654f6e557365223e3c73746f702073746f702d636f6c6f723d2223636235656565222f3e3c73746f70206f66667365743d2231222073746f702d636f6c6f723d2223306364376534222073746f702d6f7061636974793d222e3939222f3e3c2f6c696e6561724772616469656e743e3c2f646566733e3c7465787420783d2233322e352220793d223233312220666f6e742d73697a653d223237222066696c6c3d2223666666222066696c7465723d2275726c282341292220666f6e742d66616d696c793d22506c7573204a616b617274612053616e732c44656a6156752053616e732c4e6f746f20436f6c6f7220456d6f6a692c4170706c6520436f6c6f7220456d6f6a692c73616e732d73657269662220666f6e742d7765696768743d22626f6c64223e",
  "linkReferences": {},
  "deployedLinkReferences": {}
}